{
  "_format": "hh-sol-artifact-1",
  "contractName": "VistaState",
  "sourceName": "contracts/VistaState.sol",
  "abi": [
    {
      "inputs": [
        {
          "internalType": "address",
          "name": "_operatorAdmin",
          "type": "address"
        },
        {
          "internalType": "address",
          "name": "_traderAdmin",
          "type": "address"
        },
        {
          "internalType": "address",
          "name": "_serviceAdmin",
          "type": "address"
        }
      ],
      "stateMutability": "nonpayable",
      "type": "constructor"
    },
    {
      "anonymous": false,
      "inputs": [
        {
          "indexed": true,
          "internalType": "string",
          "name": "productName",
          "type": "string"
        },
        {
          "indexed": true,
          "internalType": "address",
          "name": "vaultAddress",
          "type": "address"
        },
        {
          "indexed": false,
          "internalType": "uint256",
          "name": "amount",
          "type": "uint256"
        }
      ],
      "name": "AssetsMovedToProduct",
      "type": "event"
    },
    {
      "anonymous": false,
      "inputs": [
        {
          "indexed": true,
          "internalType": "address",
          "name": "feeRecipient",
          "type": "address"
        }
      ],
      "name": "FeeRecipientUpdated",
      "type": "event"
    },
    {
      "anonymous": false,
      "inputs": [
        {
          "indexed": true,
          "internalType": "address",
          "name": "marketMaker",
          "type": "address"
        },
        {
          "indexed": true,
          "internalType": "bool",
          "name": "allow",
          "type": "bool"
        }
      ],
      "name": "MarketMakerPermissionUpdated",
      "type": "event"
    },
    {
      "anonymous": false,
      "inputs": [
        {
          "indexed": true,
          "internalType": "string",
          "name": "oracleName",
          "type": "string"
        },
        {
          "indexed": true,
          "internalType": "address",
          "name": "oracleAddress",
          "type": "address"
        }
      ],
      "name": "OracleAdded",
      "type": "event"
    },
    {
      "anonymous": false,
      "inputs": [
        {
          "indexed": true,
          "internalType": "string",
          "name": "oracleName",
          "type": "string"
        }
      ],
      "name": "OracleRemoved",
      "type": "event"
    },
    {
      "anonymous": false,
      "inputs": [
        {
          "indexed": true,
          "internalType": "string",
          "name": "productName",
          "type": "string"
        },
        {
          "indexed": true,
          "internalType": "address",
          "name": "productAddress",
          "type": "address"
        }
      ],
      "name": "ProductAdded",
      "type": "event"
    },
    {
      "anonymous": false,
      "inputs": [
        {
          "indexed": true,
          "internalType": "string",
          "name": "productName",
          "type": "string"
        }
      ],
      "name": "ProductRemoved",
      "type": "event"
    },
    {
      "anonymous": false,
      "inputs": [
        {
          "indexed": true,
          "internalType": "bytes32",
          "name": "role",
          "type": "bytes32"
        },
        {
          "indexed": true,
          "internalType": "bytes32",
          "name": "previousAdminRole",
          "type": "bytes32"
        },
        {
          "indexed": true,
          "internalType": "bytes32",
          "name": "newAdminRole",
          "type": "bytes32"
        }
      ],
      "name": "RoleAdminChanged",
      "type": "event"
    },
    {
      "anonymous": false,
      "inputs": [
        {
          "indexed": true,
          "internalType": "bytes32",
          "name": "role",
          "type": "bytes32"
        },
        {
          "indexed": true,
          "internalType": "address",
          "name": "account",
          "type": "address"
        },
        {
          "indexed": true,
          "internalType": "address",
          "name": "sender",
          "type": "address"
        }
      ],
      "name": "RoleGranted",
      "type": "event"
    },
    {
      "anonymous": false,
      "inputs": [
        {
          "indexed": true,
          "internalType": "bytes32",
          "name": "role",
          "type": "bytes32"
        },
        {
          "indexed": true,
          "internalType": "address",
          "name": "account",
          "type": "address"
        },
        {
          "indexed": true,
          "internalType": "address",
          "name": "sender",
          "type": "address"
        }
      ],
      "name": "RoleRevoked",
      "type": "event"
    },
    {
      "anonymous": false,
      "inputs": [
        {
          "indexed": true,
          "internalType": "address",
          "name": "sp0ProductViewerAddress",
          "type": "address"
        }
      ],
      "name": "SP0ProductViewerUpdated",
      "type": "event"
    },
    {
      "inputs": [],
      "name": "DEFAULT_ADMIN_ROLE",
      "outputs": [
        {
          "internalType": "bytes32",
          "name": "",
          "type": "bytes32"
        }
      ],
      "stateMutability": "view",
      "type": "function"
    },
    {
      "inputs": [],
      "name": "OPERATOR_ADMIN_ROLE",
      "outputs": [
        {
          "internalType": "bytes32",
          "name": "",
          "type": "bytes32"
        }
      ],
      "stateMutability": "view",
      "type": "function"
    },
    {
      "inputs": [],
      "name": "SERVICE_ADMIN_ROLE",
      "outputs": [
        {
          "internalType": "bytes32",
          "name": "",
          "type": "bytes32"
        }
      ],
      "stateMutability": "view",
      "type": "function"
    },
    {
      "inputs": [],
      "name": "TRADER_ADMIN_ROLE",
      "outputs": [
        {
          "internalType": "bytes32",
          "name": "",
          "type": "bytes32"
        }
      ],
      "stateMutability": "view",
      "type": "function"
    },
    {
      "inputs": [
        {
          "internalType": "string",
          "name": "oracleName",
          "type": "string"
        },
        {
          "internalType": "address",
          "name": "oracleAddress",
          "type": "address"
        }
      ],
      "name": "addOracle",
      "outputs": [],
      "stateMutability": "nonpayable",
      "type": "function"
    },
    {
      "inputs": [
        {
          "internalType": "string",
          "name": "productName",
          "type": "string"
        },
        {
          "internalType": "address",
          "name": "product",
          "type": "address"
        }
      ],
      "name": "addProduct",
      "outputs": [],
      "stateMutability": "nonpayable",
      "type": "function"
    },
    {
      "inputs": [],
      "name": "feeRecipient",
      "outputs": [
        {
          "internalType": "address",
          "name": "",
          "type": "address"
        }
      ],
      "stateMutability": "view",
      "type": "function"
    },
    {
      "inputs": [],
      "name": "getOracleNames",
      "outputs": [
        {
          "internalType": "string[]",
          "name": "",
          "type": "string[]"
        }
      ],
      "stateMutability": "view",
      "type": "function"
    },
    {
      "inputs": [],
      "name": "getProductNames",
      "outputs": [
        {
          "internalType": "string[]",
          "name": "",
          "type": "string[]"
        }
      ],
      "stateMutability": "view",
      "type": "function"
    },
    {
      "inputs": [
        {
          "internalType": "bytes32",
          "name": "role",
          "type": "bytes32"
        }
      ],
      "name": "getRoleAdmin",
      "outputs": [
        {
          "internalType": "bytes32",
          "name": "",
          "type": "bytes32"
        }
      ],
      "stateMutability": "view",
      "type": "function"
    },
    {
      "inputs": [
        {
          "internalType": "bytes32",
          "name": "role",
          "type": "bytes32"
        },
        {
          "internalType": "address",
          "name": "account",
          "type": "address"
        }
      ],
      "name": "grantRole",
      "outputs": [],
      "stateMutability": "nonpayable",
      "type": "function"
    },
    {
      "inputs": [
        {
          "internalType": "bytes32",
          "name": "role",
          "type": "bytes32"
        },
        {
          "internalType": "address",
          "name": "account",
          "type": "address"
        }
      ],
      "name": "hasRole",
      "outputs": [
        {
          "internalType": "bool",
          "name": "",
          "type": "bool"
        }
      ],
      "stateMutability": "view",
      "type": "function"
    },
    {
      "inputs": [
        {
          "internalType": "address",
          "name": "sender",
          "type": "address"
        }
      ],
      "name": "isDefaultAdmin",
      "outputs": [
        {
          "internalType": "bool",
          "name": "",
          "type": "bool"
        }
      ],
      "stateMutability": "view",
      "type": "function"
    },
    {
      "inputs": [
        {
          "internalType": "address",
          "name": "sender",
          "type": "address"
        }
      ],
      "name": "isOperatorAdmin",
      "outputs": [
        {
          "internalType": "bool",
          "name": "",
          "type": "bool"
        }
      ],
      "stateMutability": "view",
      "type": "function"
    },
    {
      "inputs": [
        {
          "internalType": "address",
          "name": "sender",
          "type": "address"
        }
      ],
      "name": "isServiceAdmin",
      "outputs": [
        {
          "internalType": "bool",
          "name": "",
          "type": "bool"
        }
      ],
      "stateMutability": "view",
      "type": "function"
    },
    {
      "inputs": [
        {
          "internalType": "address",
          "name": "sender",
          "type": "address"
        }
      ],
      "name": "isTraderAdmin",
      "outputs": [
        {
          "internalType": "bool",
          "name": "",
          "type": "bool"
        }
      ],
      "stateMutability": "view",
      "type": "function"
    },
    {
      "inputs": [
        {
          "internalType": "address",
          "name": "",
          "type": "address"
        }
      ],
      "name": "marketMakerAllowList",
      "outputs": [
        {
          "internalType": "bool",
          "name": "",
          "type": "bool"
        }
      ],
      "stateMutability": "view",
      "type": "function"
    },
    {
      "inputs": [
        {
          "internalType": "string",
          "name": "productName",
          "type": "string"
        },
        {
          "internalType": "address",
          "name": "vaultAddress",
          "type": "address"
        },
        {
          "internalType": "uint256",
          "name": "amount",
          "type": "uint256"
        }
      ],
      "name": "moveAssetsToProduct",
      "outputs": [],
      "stateMutability": "nonpayable",
      "type": "function"
    },
    {
      "inputs": [
        {
          "internalType": "string",
          "name": "",
          "type": "string"
        }
      ],
      "name": "oracleAddresses",
      "outputs": [
        {
          "internalType": "address",
          "name": "",
          "type": "address"
        }
      ],
      "stateMutability": "view",
      "type": "function"
    },
    {
      "inputs": [
        {
          "internalType": "uint256",
          "name": "",
          "type": "uint256"
        }
      ],
      "name": "oracleNames",
      "outputs": [
        {
          "internalType": "string",
          "name": "",
          "type": "string"
        }
      ],
      "stateMutability": "view",
      "type": "function"
    },
    {
      "inputs": [
        {
          "internalType": "uint256",
          "name": "",
          "type": "uint256"
        }
      ],
      "name": "productNames",
      "outputs": [
        {
          "internalType": "string",
          "name": "",
          "type": "string"
        }
      ],
      "stateMutability": "view",
      "type": "function"
    },
    {
      "inputs": [
        {
          "internalType": "string",
          "name": "",
          "type": "string"
        }
      ],
      "name": "products",
      "outputs": [
        {
          "internalType": "address",
          "name": "",
          "type": "address"
        }
      ],
      "stateMutability": "view",
      "type": "function"
    },
    {
      "inputs": [
        {
          "internalType": "string",
          "name": "oracleName",
          "type": "string"
        }
      ],
      "name": "removeOracle",
      "outputs": [],
      "stateMutability": "nonpayable",
      "type": "function"
    },
    {
      "inputs": [
        {
          "internalType": "string",
          "name": "productName",
          "type": "string"
        }
      ],
      "name": "removeProduct",
      "outputs": [],
      "stateMutability": "nonpayable",
      "type": "function"
    },
    {
      "inputs": [
        {
          "internalType": "bytes32",
          "name": "role",
          "type": "bytes32"
        },
        {
          "internalType": "address",
          "name": "account",
          "type": "address"
        }
      ],
      "name": "renounceRole",
      "outputs": [],
      "stateMutability": "nonpayable",
      "type": "function"
    },
    {
      "inputs": [
        {
          "internalType": "bytes32",
          "name": "role",
          "type": "bytes32"
        },
        {
          "internalType": "address",
          "name": "account",
          "type": "address"
        }
      ],
      "name": "revokeRole",
      "outputs": [],
      "stateMutability": "nonpayable",
      "type": "function"
    },
    {
      "inputs": [
        {
          "internalType": "address",
          "name": "_feeRecipient",
          "type": "address"
        }
      ],
      "name": "setFeeRecipient",
      "outputs": [],
      "stateMutability": "nonpayable",
      "type": "function"
    },
    {
      "inputs": [
        {
          "internalType": "address",
          "name": "_sp0ProductViewerAddress",
          "type": "address"
        }
      ],
      "name": "setSP0ProductViewerAddress",
      "outputs": [],
      "stateMutability": "nonpayable",
      "type": "function"
    },
    {
      "inputs": [],
      "name": "sp0ProductViewerAddress",
      "outputs": [
        {
          "internalType": "address",
          "name": "",
          "type": "address"
        }
      ],
      "stateMutability": "view",
      "type": "function"
    },
    {
      "inputs": [
        {
          "internalType": "bytes4",
          "name": "interfaceId",
          "type": "bytes4"
        }
      ],
      "name": "supportsInterface",
      "outputs": [
        {
          "internalType": "bool",
          "name": "",
          "type": "bool"
        }
      ],
      "stateMutability": "view",
      "type": "function"
    },
    {
      "inputs": [
        {
          "internalType": "address",
          "name": "marketMaker",
          "type": "address"
        },
        {
          "internalType": "bool",
          "name": "allow",
          "type": "bool"
        }
      ],
      "name": "updateMarketMakerPermission",
      "outputs": [],
      "stateMutability": "nonpayable",
      "type": "function"
    }
  ],
  "bytecode": "0x60806040523480156200001157600080fd5b50604051620034ea380380620034ea8339818101604052810190620000379190620002ce565b6200004c6000801b33620000eb60201b60201c565b6200007e7fa76ae24524824acbc21b351dd3e380dcc53874f0487c5ec4424767562c1192ee84620000eb60201b60201c565b620000b07f264001e901c3e181f17cd2c6cec22c2e23d9dd662da12dcafc2619e16b7cd02483620000eb60201b60201c565b620000e27f9a95e87c5af084bf5db8491c3a6515da9dd6da39b24b0eb0af08d7b9cd808d9182620000eb60201b60201c565b5050506200032a565b620000fd82826200010160201b60201c565b5050565b620001138282620001f260201b60201c565b620001ee57600160008084815260200190815260200160002060000160008373ffffffffffffffffffffffffffffffffffffffff1673ffffffffffffffffffffffffffffffffffffffff16815260200190815260200160002060006101000a81548160ff021916908315150217905550620001936200025c60201b60201c565b73ffffffffffffffffffffffffffffffffffffffff168173ffffffffffffffffffffffffffffffffffffffff16837f2f8788117e7eff1d82e926ec794901d17c78024a50270940304540a733656f0d60405160405180910390a45b5050565b600080600084815260200190815260200160002060000160008373ffffffffffffffffffffffffffffffffffffffff1673ffffffffffffffffffffffffffffffffffffffff16815260200190815260200160002060009054906101000a900460ff16905092915050565b600033905090565b600080fd5b600073ffffffffffffffffffffffffffffffffffffffff82169050919050565b6000620002968262000269565b9050919050565b620002a88162000289565b8114620002b457600080fd5b50565b600081519050620002c8816200029d565b92915050565b600080600060608486031215620002ea57620002e962000264565b5b6000620002fa86828701620002b7565b93505060206200030d86828701620002b7565b92505060406200032086828701620002b7565b9150509250925092565b6131b0806200033a6000396000f3fe608060405234801561001057600080fd5b50600436106101e55760003560e01c806391d148541161010f578063c3f7fe22116100a2578063dac500e311610071578063dac500e3146105c8578063e5950282146105e6578063e74b981b14610616578063f867368214610632576101e5565b8063c3f7fe2214610540578063c6134df214610570578063d09445c21461058e578063d547741f146105ac576101e5565b8063a91091ef116100de578063a91091ef146104ba578063b5716d76146104d6578063ba4fe16514610506578063bf6c5e9b14610522576101e5565b806391d148541461043257806392b4b99f146104625780639726dd1914610480578063a217fddf1461049c576101e5565b80633774ecc4116101875780635900c74d116101565780635900c74d1461039a578063592aad4a146103b657806361c77abf146103e657806373561c3b14610402576101e5565b80633774ecc4146103005780633b9033c9146103305780634690484014610360578063562294651461037e576101e5565b80631fd40a76116101c35780631fd40a761461027a578063248a9ca3146102985780632f2ff15d146102c857806336568abe146102e4576101e5565b80630186a423146101ea57806301ffc9a71461021a57806307f7c6db1461024a575b600080fd5b61020460048036038101906101ff9190612186565b61064e565b6040516102119190612210565b60405180910390f35b610234600480360381019061022f9190612283565b610697565b60405161024191906122cb565b60405180910390f35b610264600480360381019061025f919061231c565b610711565b60405161027191906123c8565b60405180910390f35b6102826107bd565b60405161028f91906124f6565b60405180910390f35b6102b260048036038101906102ad919061254e565b610896565b6040516102bf919061258a565b60405180910390f35b6102e260048036038101906102dd91906125d1565b6108b5565b005b6102fe60048036038101906102f991906125d1565b6108d6565b005b61031a60048036038101906103159190612611565b610959565b60405161032791906122cb565b60405180910390f35b61034a60048036038101906103459190612611565b61098c565b60405161035791906122cb565b60405180910390f35b6103686109bf565b6040516103759190612210565b60405180910390f35b6103986004803603810190610393919061263e565b6109e5565b005b6103b460048036038101906103af919061263e565b610be1565b005b6103d060048036038101906103cb9190612611565b610ddd565b6040516103dd91906122cb565b60405180910390f35b61040060048036038101906103fb9190612611565b610df3565b005b61041c60048036038101906104179190612611565b610ea5565b60405161042991906122cb565b60405180910390f35b61044c600480360381019061044791906125d1565b610ed8565b60405161045991906122cb565b60405180910390f35b61046a610f42565b6040516104779190612210565b60405180910390f35b61049a60048036038101906104959190612186565b610f68565b005b6104a461114b565b6040516104b1919061258a565b60405180910390f35b6104d460048036038101906104cf91906126c6565b611152565b005b6104f060048036038101906104eb9190612186565b61128d565b6040516104fd9190612210565b60405180910390f35b610520600480360381019061051b9190612706565b6112d6565b005b61052a61157d565b60405161053791906124f6565b60405180910390f35b61055a60048036038101906105559190612611565b611656565b60405161056791906122cb565b60405180910390f35b610578611676565b604051610585919061258a565b60405180910390f35b61059661169a565b6040516105a3919061258a565b60405180910390f35b6105c660048036038101906105c191906125d1565b6116be565b005b6105d06116df565b6040516105dd919061258a565b60405180910390f35b61060060048036038101906105fb919061231c565b611703565b60405161060d91906123c8565b60405180910390f35b610630600480360381019061062b9190612611565b6117af565b005b61064c60048036038101906106479190612186565b6118b3565b005b6002818051602081018201805184825260208301602085012081835280955050505050506000915054906101000a900473ffffffffffffffffffffffffffffffffffffffff1681565b60007f7965db0b000000000000000000000000000000000000000000000000000000007bffffffffffffffffffffffffffffffffffffffffffffffffffffffff1916827bffffffffffffffffffffffffffffffffffffffffffffffffffffffff1916148061070a575061070982611a9a565b5b9050919050565b6004818154811061072157600080fd5b90600052602060002001600091509050805461073c906127a4565b80601f0160208091040260200160405190810160405280929190818152602001828054610768906127a4565b80156107b55780601f1061078a576101008083540402835291602001916107b5565b820191906000526020600020905b81548152906001019060200180831161079857829003601f168201915b505050505081565b60606004805480602002602001604051908101604052809291908181526020016000905b8282101561088d578382906000526020600020018054610800906127a4565b80601f016020809104026020016040519081016040528092919081815260200182805461082c906127a4565b80156108795780601f1061084e57610100808354040283529160200191610879565b820191906000526020600020905b81548152906001019060200180831161085c57829003601f168201915b5050505050815260200190600101906107e1565b50505050905090565b6000806000838152602001908152602001600020600101549050919050565b6108be82610896565b6108c781611b04565b6108d18383611b18565b505050565b6108de611bf8565b73ffffffffffffffffffffffffffffffffffffffff168173ffffffffffffffffffffffffffffffffffffffff161461094b576040517f08c379a000000000000000000000000000000000000000000000000000000000815260040161094290612847565b60405180910390fd5b6109558282611c00565b5050565b60006109857f264001e901c3e181f17cd2c6cec22c2e23d9dd662da12dcafc2619e16b7cd02483610ed8565b9050919050565b60006109b87f9a95e87c5af084bf5db8491c3a6515da9dd6da39b24b0eb0af08d7b9cd808d9183610ed8565b9050919050565b600660009054906101000a900473ffffffffffffffffffffffffffffffffffffffff1681565b7fa76ae24524824acbc21b351dd3e380dcc53874f0487c5ec4424767562c1192ee610a0f81611b04565b600073ffffffffffffffffffffffffffffffffffffffff168273ffffffffffffffffffffffffffffffffffffffff1603610a7e576040517f08c379a0000000000000000000000000000000000000000000000000000000008152600401610a75906128b3565b60405180910390fd5b600073ffffffffffffffffffffffffffffffffffffffff16600284604051610aa6919061290f565b908152602001604051809103902060009054906101000a900473ffffffffffffffffffffffffffffffffffffffff1673ffffffffffffffffffffffffffffffffffffffff1603610b2657600583908060018154018082558091505060019003906000526020600020016000909190919091509081610b249190612ad2565b505b81600284604051610b37919061290f565b908152602001604051809103902060006101000a81548173ffffffffffffffffffffffffffffffffffffffff021916908373ffffffffffffffffffffffffffffffffffffffff1602179055508173ffffffffffffffffffffffffffffffffffffffff1683604051610ba8919061290f565b60405180910390207f4cc39cf92556f56ba17184d656cf1bbcfd5f8e8d7b1071d0e295017b9f70f41b60405160405180910390a3505050565b7fa76ae24524824acbc21b351dd3e380dcc53874f0487c5ec4424767562c1192ee610c0b81611b04565b600073ffffffffffffffffffffffffffffffffffffffff168273ffffffffffffffffffffffffffffffffffffffff1603610c7a576040517f08c379a0000000000000000000000000000000000000000000000000000000008152600401610c71906128b3565b60405180910390fd5b600073ffffffffffffffffffffffffffffffffffffffff16600384604051610ca2919061290f565b908152602001604051809103902060009054906101000a900473ffffffffffffffffffffffffffffffffffffffff1673ffffffffffffffffffffffffffffffffffffffff1603610d2257600483908060018154018082558091505060019003906000526020600020016000909190919091509081610d209190612ad2565b505b81600384604051610d33919061290f565b908152602001604051809103902060006101000a81548173ffffffffffffffffffffffffffffffffffffffff021916908373ffffffffffffffffffffffffffffffffffffffff1602179055508173ffffffffffffffffffffffffffffffffffffffff1683604051610da4919061290f565b60405180910390207f78cdb79fba1f42e6ca936bf7bd4be337a4a1734c57e4b9f68a1a465b4ac0d9b060405160405180910390a3505050565b6000610dec6000801b83610ed8565b9050919050565b7fa76ae24524824acbc21b351dd3e380dcc53874f0487c5ec4424767562c1192ee610e1d81611b04565b81600760006101000a81548173ffffffffffffffffffffffffffffffffffffffff021916908373ffffffffffffffffffffffffffffffffffffffff1602179055508173ffffffffffffffffffffffffffffffffffffffff167fe89789242fff66c234ad35085ad4e22885daee0e7f4f70ff5a2a1849c732354a60405160405180910390a25050565b6000610ed17fa76ae24524824acbc21b351dd3e380dcc53874f0487c5ec4424767562c1192ee83610ed8565b9050919050565b600080600084815260200190815260200160002060000160008373ffffffffffffffffffffffffffffffffffffffff1673ffffffffffffffffffffffffffffffffffffffff16815260200190815260200160002060009054906101000a900460ff16905092915050565b600760009054906101000a900473ffffffffffffffffffffffffffffffffffffffff1681565b7fa76ae24524824acbc21b351dd3e380dcc53874f0487c5ec4424767562c1192ee610f9281611b04565b60008060005b6005805490508110156110305784604051602001610fb6919061290f565b6040516020818303038152906040528051906020012060058281548110610fe057610fdf612ba4565b5b90600052602060002001604051602001610ffa9190612c56565b604051602081830303815290604052805190602001200361101d57809150600192505b808061102890612c9c565b915050610f98565b508115611145576005600160058054905061104b9190612ce4565b8154811061105c5761105b612ba4565b5b906000526020600020016005828154811061107a57611079612ba4565b5b9060005260206000200190816110909190612d43565b5060058054806110a3576110a2612e2b565b5b6001900381819060005260206000200160006110bf9190611fcf565b90556002846040516110d1919061290f565b908152602001604051809103902060006101000a81549073ffffffffffffffffffffffffffffffffffffffff021916905583604051611110919061290f565b60405180910390207f1c40e49688e963884d475feda3ddb42c17aec5d2a82706904ba014ee7ce54a2a60405160405180910390a25b50505050565b6000801b81565b7fa76ae24524824acbc21b351dd3e380dcc53874f0487c5ec4424767562c1192ee61117c81611b04565b600073ffffffffffffffffffffffffffffffffffffffff168373ffffffffffffffffffffffffffffffffffffffff16036111eb576040517f08c379a00000000000000000000000000000000000000000000000000000000081526004016111e2906128b3565b60405180910390fd5b81600160008573ffffffffffffffffffffffffffffffffffffffff1673ffffffffffffffffffffffffffffffffffffffff16815260200190815260200160002060006101000a81548160ff0219169083151502179055508115158373ffffffffffffffffffffffffffffffffffffffff167f57f98562c9f8bc4df2d505ef267a5a4a7782ada9b5e4660e2fe833510a33ecf160405160405180910390a3505050565b6003818051602081018201805184825260208301602085012081835280955050505050506000915054906101000a900473ffffffffffffffffffffffffffffffffffffffff1681565b7f264001e901c3e181f17cd2c6cec22c2e23d9dd662da12dcafc2619e16b7cd02461130081611b04565b6000600285604051611312919061290f565b908152602001604051809103902060009054906101000a900473ffffffffffffffffffffffffffffffffffffffff169050600073ffffffffffffffffffffffffffffffffffffffff168173ffffffffffffffffffffffffffffffffffffffff16036113b2576040517f08c379a00000000000000000000000000000000000000000000000000000000081526004016113a990612ea6565b60405180910390fd5b60008190508073ffffffffffffffffffffffffffffffffffffffff166338d52e0f6040518163ffffffff1660e01b8152600401602060405180830381865afa158015611402573d6000803e3d6000fd5b505050506040513d601f19601f820116820180604052508101906114269190612edb565b73ffffffffffffffffffffffffffffffffffffffff1663095ea7b383866040518363ffffffff1660e01b8152600401611460929190612f17565b6020604051808303816000875af115801561147f573d6000803e3d6000fd5b505050506040513d601f19601f820116820180604052508101906114a39190612f55565b508073ffffffffffffffffffffffffffffffffffffffff16639577509186866040518363ffffffff1660e01b81526004016114df929190612f17565b600060405180830381600087803b1580156114f957600080fd5b505af115801561150d573d6000803e3d6000fd5b505050508473ffffffffffffffffffffffffffffffffffffffff1686604051611536919061290f565b60405180910390207ff08bd4877b5a59894b35ac969f29efa3be8fd5d609ed28e01ad234fea3034e5a8660405161156d9190612f82565b60405180910390a3505050505050565b60606005805480602002602001604051908101604052809291908181526020016000905b8282101561164d5783829060005260206000200180546115c0906127a4565b80601f01602080910402602001604051908101604052809291908181526020018280546115ec906127a4565b80156116395780601f1061160e57610100808354040283529160200191611639565b820191906000526020600020905b81548152906001019060200180831161161c57829003601f168201915b5050505050815260200190600101906115a1565b50505050905090565b60016020528060005260406000206000915054906101000a900460ff1681565b7f264001e901c3e181f17cd2c6cec22c2e23d9dd662da12dcafc2619e16b7cd02481565b7f9a95e87c5af084bf5db8491c3a6515da9dd6da39b24b0eb0af08d7b9cd808d9181565b6116c782610896565b6116d081611b04565b6116da8383611c00565b505050565b7fa76ae24524824acbc21b351dd3e380dcc53874f0487c5ec4424767562c1192ee81565b6005818154811061171357600080fd5b90600052602060002001600091509050805461172e906127a4565b80601f016020809104026020016040519081016040528092919081815260200182805461175a906127a4565b80156117a75780601f1061177c576101008083540402835291602001916117a7565b820191906000526020600020905b81548152906001019060200180831161178a57829003601f168201915b505050505081565b6000801b6117bc81611b04565b600073ffffffffffffffffffffffffffffffffffffffff168273ffffffffffffffffffffffffffffffffffffffff160361182b576040517f08c379a0000000000000000000000000000000000000000000000000000000008152600401611822906128b3565b60405180910390fd5b81600660006101000a81548173ffffffffffffffffffffffffffffffffffffffff021916908373ffffffffffffffffffffffffffffffffffffffff1602179055508173ffffffffffffffffffffffffffffffffffffffff167f7a7b5a0a132f9e0581eb8527f66eae9ee89c2a3e79d4ac7e41a1f1f4d48a7fc260405160405180910390a25050565b7fa76ae24524824acbc21b351dd3e380dcc53874f0487c5ec4424767562c1192ee6118dd81611b04565b60008060005b60048054905081101561197f5784604051602001611901919061290f565b604051602081830303815290604052805190602001206004828154811061192b5761192a612ba4565b5b906000526020600020016040516020016119459190612c56565b604051602081830303815290604052805190602001200361196c578091506001925061197f565b808061197790612c9c565b9150506118e3565b508115611a94576004600160048054905061199a9190612ce4565b815481106119ab576119aa612ba4565b5b90600052602060002001600482815481106119c9576119c8612ba4565b5b9060005260206000200190816119df9190612d43565b5060048054806119f2576119f1612e2b565b5b600190038181906000526020600020016000611a0e9190611fcf565b9055600384604051611a20919061290f565b908152602001604051809103902060006101000a81549073ffffffffffffffffffffffffffffffffffffffff021916905583604051611a5f919061290f565b60405180910390207fa28dc34059cd4716d51da651406dc8ff96399e3cf46725143a7f2855c68cf39460405160405180910390a25b50505050565b60007f01ffc9a7000000000000000000000000000000000000000000000000000000007bffffffffffffffffffffffffffffffffffffffffffffffffffffffff1916827bffffffffffffffffffffffffffffffffffffffffffffffffffffffff1916149050919050565b611b1581611b10611bf8565b611ce1565b50565b611b228282610ed8565b611bf457600160008084815260200190815260200160002060000160008373ffffffffffffffffffffffffffffffffffffffff1673ffffffffffffffffffffffffffffffffffffffff16815260200190815260200160002060006101000a81548160ff021916908315150217905550611b99611bf8565b73ffffffffffffffffffffffffffffffffffffffff168173ffffffffffffffffffffffffffffffffffffffff16837f2f8788117e7eff1d82e926ec794901d17c78024a50270940304540a733656f0d60405160405180910390a45b5050565b600033905090565b611c0a8282610ed8565b15611cdd57600080600084815260200190815260200160002060000160008373ffffffffffffffffffffffffffffffffffffffff1673ffffffffffffffffffffffffffffffffffffffff16815260200190815260200160002060006101000a81548160ff021916908315150217905550611c82611bf8565b73ffffffffffffffffffffffffffffffffffffffff168173ffffffffffffffffffffffffffffffffffffffff16837ff6391f5c32d9c69d2a47ea670b442974b53935d1edc7fd64eb21e047a839171b60405160405180910390a45b5050565b611ceb8282610ed8565b611d6257611cf881611d66565b611d068360001c6020611d93565b604051602001611d17929190613035565b6040516020818303038152906040526040517f08c379a0000000000000000000000000000000000000000000000000000000008152600401611d5991906123c8565b60405180910390fd5b5050565b6060611d8c8273ffffffffffffffffffffffffffffffffffffffff16601460ff16611d93565b9050919050565b606060006002836002611da6919061306f565b611db091906130b1565b67ffffffffffffffff811115611dc957611dc861205b565b5b6040519080825280601f01601f191660200182016040528015611dfb5781602001600182028036833780820191505090505b5090507f300000000000000000000000000000000000000000000000000000000000000081600081518110611e3357611e32612ba4565b5b60200101907effffffffffffffffffffffffffffffffffffffffffffffffffffffffffffff1916908160001a9053507f780000000000000000000000000000000000000000000000000000000000000081600181518110611e9757611e96612ba4565b5b60200101907effffffffffffffffffffffffffffffffffffffffffffffffffffffffffffff1916908160001a90535060006001846002611ed7919061306f565b611ee191906130b1565b90505b6001811115611f81577f3031323334353637383961626364656600000000000000000000000000000000600f861660108110611f2357611f22612ba4565b5b1a60f81b828281518110611f3a57611f39612ba4565b5b60200101907effffffffffffffffffffffffffffffffffffffffffffffffffffffffffffff1916908160001a905350600485901c945080611f7a906130e5565b9050611ee4565b5060008414611fc5576040517f08c379a0000000000000000000000000000000000000000000000000000000008152600401611fbc9061315a565b60405180910390fd5b8091505092915050565b508054611fdb906127a4565b6000825580601f10611fed575061200c565b601f01602090049060005260206000209081019061200b919061200f565b5b50565b5b80821115612028576000816000905550600101612010565b5090565b6000604051905090565b600080fd5b600080fd5b600080fd5b600080fd5b6000601f19601f8301169050919050565b7f4e487b7100000000000000000000000000000000000000000000000000000000600052604160045260246000fd5b6120938261204a565b810181811067ffffffffffffffff821117156120b2576120b161205b565b5b80604052505050565b60006120c561202c565b90506120d1828261208a565b919050565b600067ffffffffffffffff8211156120f1576120f061205b565b5b6120fa8261204a565b9050602081019050919050565b82818337600083830152505050565b6000612129612124846120d6565b6120bb565b90508281526020810184848401111561214557612144612045565b5b612150848285612107565b509392505050565b600082601f83011261216d5761216c612040565b5b813561217d848260208601612116565b91505092915050565b60006020828403121561219c5761219b612036565b5b600082013567ffffffffffffffff8111156121ba576121b961203b565b5b6121c684828501612158565b91505092915050565b600073ffffffffffffffffffffffffffffffffffffffff82169050919050565b60006121fa826121cf565b9050919050565b61220a816121ef565b82525050565b60006020820190506122256000830184612201565b92915050565b60007fffffffff0000000000000000000000000000000000000000000000000000000082169050919050565b6122608161222b565b811461226b57600080fd5b50565b60008135905061227d81612257565b92915050565b60006020828403121561229957612298612036565b5b60006122a78482850161226e565b91505092915050565b60008115159050919050565b6122c5816122b0565b82525050565b60006020820190506122e060008301846122bc565b92915050565b6000819050919050565b6122f9816122e6565b811461230457600080fd5b50565b600081359050612316816122f0565b92915050565b60006020828403121561233257612331612036565b5b600061234084828501612307565b91505092915050565b600081519050919050565b600082825260208201905092915050565b60005b83811015612383578082015181840152602081019050612368565b60008484015250505050565b600061239a82612349565b6123a48185612354565b93506123b4818560208601612365565b6123bd8161204a565b840191505092915050565b600060208201905081810360008301526123e2818461238f565b905092915050565b600081519050919050565b600082825260208201905092915050565b6000819050602082019050919050565b600082825260208201905092915050565b600061243282612349565b61243c8185612416565b935061244c818560208601612365565b6124558161204a565b840191505092915050565b600061246c8383612427565b905092915050565b6000602082019050919050565b600061248c826123ea565b61249681856123f5565b9350836020820285016124a885612406565b8060005b858110156124e457848403895281516124c58582612460565b94506124d083612474565b925060208a019950506001810190506124ac565b50829750879550505050505092915050565b600060208201905081810360008301526125108184612481565b905092915050565b6000819050919050565b61252b81612518565b811461253657600080fd5b50565b60008135905061254881612522565b92915050565b60006020828403121561256457612563612036565b5b600061257284828501612539565b91505092915050565b61258481612518565b82525050565b600060208201905061259f600083018461257b565b92915050565b6125ae816121ef565b81146125b957600080fd5b50565b6000813590506125cb816125a5565b92915050565b600080604083850312156125e8576125e7612036565b5b60006125f685828601612539565b9250506020612607858286016125bc565b9150509250929050565b60006020828403121561262757612626612036565b5b6000612635848285016125bc565b91505092915050565b6000806040838503121561265557612654612036565b5b600083013567ffffffffffffffff8111156126735761267261203b565b5b61267f85828601612158565b9250506020612690858286016125bc565b9150509250929050565b6126a3816122b0565b81146126ae57600080fd5b50565b6000813590506126c08161269a565b92915050565b600080604083850312156126dd576126dc612036565b5b60006126eb858286016125bc565b92505060206126fc858286016126b1565b9150509250929050565b60008060006060848603121561271f5761271e612036565b5b600084013567ffffffffffffffff81111561273d5761273c61203b565b5b61274986828701612158565b935050602061275a868287016125bc565b925050604061276b86828701612307565b9150509250925092565b7f4e487b7100000000000000000000000000000000000000000000000000000000600052602260045260246000fd5b600060028204905060018216806127bc57607f821691505b6020821081036127cf576127ce612775565b5b50919050565b7f416363657373436f6e74726f6c3a2063616e206f6e6c792072656e6f756e636560008201527f20726f6c657320666f722073656c660000000000000000000000000000000000602082015250565b6000612831602f83612354565b915061283c826127d5565b604082019050919050565b6000602082019050818103600083015261286081612824565b9050919050565b7f3430303a49410000000000000000000000000000000000000000000000000000600082015250565b600061289d600683612354565b91506128a882612867565b602082019050919050565b600060208201905081810360008301526128cc81612890565b9050919050565b600081905092915050565b60006128e982612349565b6128f381856128d3565b9350612903818560208601612365565b80840191505092915050565b600061291b82846128de565b915081905092915050565b60008190508160005260206000209050919050565b60006020601f8301049050919050565b600082821b905092915050565b6000600883026129887fffffffffffffffffffffffffffffffffffffffffffffffffffffffffffffffff8261294b565b612992868361294b565b95508019841693508086168417925050509392505050565b6000819050919050565b60006129cf6129ca6129c5846122e6565b6129aa565b6122e6565b9050919050565b6000819050919050565b6129e9836129b4565b6129fd6129f5826129d6565b848454612958565b825550505050565b600090565b612a12612a05565b612a1d8184846129e0565b505050565b5b81811015612a4157612a36600082612a0a565b600181019050612a23565b5050565b601f821115612a8657612a5781612926565b612a608461293b565b81016020851015612a6f578190505b612a83612a7b8561293b565b830182612a22565b50505b505050565b600082821c905092915050565b6000612aa960001984600802612a8b565b1980831691505092915050565b6000612ac28383612a98565b9150826002028217905092915050565b612adb82612349565b67ffffffffffffffff811115612af457612af361205b565b5b612afe82546127a4565b612b09828285612a45565b600060209050601f831160018114612b3c5760008415612b2a578287015190505b612b348582612ab6565b865550612b9c565b601f198416612b4a86612926565b60005b82811015612b7257848901518255600182019150602085019450602081019050612b4d565b86831015612b8f5784890151612b8b601f891682612a98565b8355505b6001600288020188555050505b505050505050565b7f4e487b7100000000000000000000000000000000000000000000000000000000600052603260045260246000fd5b60008154612be0816127a4565b612bea81866128d3565b94506001821660008114612c055760018114612c1a57612c4d565b60ff1983168652811515820286019350612c4d565b612c2385612926565b60005b83811015612c4557815481890152600182019150602081019050612c26565b838801955050505b50505092915050565b6000612c628284612bd3565b915081905092915050565b7f4e487b7100000000000000000000000000000000000000000000000000000000600052601160045260246000fd5b6000612ca7826122e6565b91507fffffffffffffffffffffffffffffffffffffffffffffffffffffffffffffffff8203612cd957612cd8612c6d565b5b600182019050919050565b6000612cef826122e6565b9150612cfa836122e6565b9250828203905081811115612d1257612d11612c6d565b5b92915050565b600081549050612d27816127a4565b9050919050565b60008190508160005260206000209050919050565b818103612d51575050612e29565b612d5a82612d18565b67ffffffffffffffff811115612d7357612d7261205b565b5b612d7d82546127a4565b612d88828285612a45565b6000601f831160018114612db75760008415612da5578287015490505b612daf8582612ab6565b865550612e22565b601f198416612dc587612d2e565b9650612dd086612926565b60005b82811015612df857848901548255600182019150600185019450602081019050612dd3565b86831015612e155784890154612e11601f891682612a98565b8355505b6001600288020188555050505b5050505050505b565b7f4e487b7100000000000000000000000000000000000000000000000000000000600052603160045260246000fd5b7f3430303a504e0000000000000000000000000000000000000000000000000000600082015250565b6000612e90600683612354565b9150612e9b82612e5a565b602082019050919050565b60006020820190508181036000830152612ebf81612e83565b9050919050565b600081519050612ed5816125a5565b92915050565b600060208284031215612ef157612ef0612036565b5b6000612eff84828501612ec6565b91505092915050565b612f11816122e6565b82525050565b6000604082019050612f2c6000830185612201565b612f396020830184612f08565b9392505050565b600081519050612f4f8161269a565b92915050565b600060208284031215612f6b57612f6a612036565b5b6000612f7984828501612f40565b91505092915050565b6000602082019050612f976000830184612f08565b92915050565b7f416363657373436f6e74726f6c3a206163636f756e7420000000000000000000600082015250565b6000612fd36017836128d3565b9150612fde82612f9d565b601782019050919050565b7f206973206d697373696e6720726f6c6520000000000000000000000000000000600082015250565b600061301f6011836128d3565b915061302a82612fe9565b601182019050919050565b600061304082612fc6565b915061304c82856128de565b915061305782613012565b915061306382846128de565b91508190509392505050565b600061307a826122e6565b9150613085836122e6565b9250828202613093816122e6565b915082820484148315176130aa576130a9612c6d565b5b5092915050565b60006130bc826122e6565b91506130c7836122e6565b92508282019050808211156130df576130de612c6d565b5b92915050565b60006130f0826122e6565b91506000820361310357613102612c6d565b5b600182039050919050565b7f537472696e67733a20686578206c656e67746820696e73756666696369656e74600082015250565b6000613144602083612354565b915061314f8261310e565b602082019050919050565b6000602082019050818103600083015261317381613137565b905091905056fea2646970667358221220c6cb6675e4026c32b558eaeb3c4ca069029266e3b273c4d19de3994014dfed1564736f6c63430008130033",
  "linkReferences": {},
  "deployedLinkReferences": {}
}